{
  "_format": "hh-sol-artifact-1",
  "contractName": "EthBridge",
  "sourceName": "contracts/EthBridge.sol",
  "abi": [
    {
      "inputs": [
        {
          "internalType": "address[]",
          "name": "_relayers",
          "type": "address[]"
        },
        {
          "internalType": "uint256",
          "name": "_threshold",
          "type": "uint256"
        }
      ],
      "stateMutability": "nonpayable",
      "type": "constructor"
    },
    {
      "inputs": [
        {
          "internalType": "address",
          "name": "owner",
          "type": "address"
        }
      ],
      "name": "OwnableInvalidOwner",
      "type": "error"
    },
    {
      "inputs": [
        {
          "internalType": "address",
          "name": "account",
          "type": "address"
        }
      ],
      "name": "OwnableUnauthorizedAccount",
      "type": "error"
    },
    {
      "inputs": [],
      "name": "ReentrancyGuardReentrantCall",
      "type": "error"
    },
    {
      "inputs": [
        {
          "internalType": "address",
          "name": "token",
          "type": "address"
        }
      ],
      "name": "SafeERC20FailedOperation",
      "type": "error"
    },
    {
      "anonymous": false,
      "inputs": [
        {
          "indexed": true,
          "internalType": "address",
          "name": "previousOwner",
          "type": "address"
        },
        {
          "indexed": true,
          "internalType": "address",
          "name": "newOwner",
          "type": "address"
        }
      ],
      "name": "OwnershipTransferred",
      "type": "event"
    },
    {
      "anonymous": false,
      "inputs": [
        {
          "indexed": false,
          "internalType": "address",
          "name": "relayer",
          "type": "address"
        }
      ],
      "name": "RelayerAdded",
      "type": "event"
    },
    {
      "anonymous": false,
      "inputs": [
        {
          "indexed": false,
          "internalType": "address",
          "name": "relayer",
          "type": "address"
        }
      ],
      "name": "RelayerRemoved",
      "type": "event"
    },
    {
      "anonymous": false,
      "inputs": [
        {
          "indexed": false,
          "internalType": "uint256",
          "name": "newThreshold",
          "type": "uint256"
        }
      ],
      "name": "ThresholdUpdated",
      "type": "event"
    },
    {
      "anonymous": false,
      "inputs": [
        {
          "indexed": true,
          "internalType": "address",
          "name": "token",
          "type": "address"
        },
        {
          "indexed": true,
          "internalType": "address",
          "name": "sender",
          "type": "address"
        },
        {
          "indexed": true,
          "internalType": "bytes32",
          "name": "recipient",
          "type": "bytes32"
        },
        {
          "indexed": false,
          "internalType": "uint256",
          "name": "amount",
          "type": "uint256"
        },
        {
          "indexed": false,
          "internalType": "uint256",
          "name": "nonce",
          "type": "uint256"
        }
      ],
      "name": "TokensLocked",
      "type": "event"
    },
    {
      "anonymous": false,
      "inputs": [
        {
          "indexed": true,
          "internalType": "address",
          "name": "token",
          "type": "address"
        },
        {
          "indexed": true,
          "internalType": "address",
          "name": "recipient",
          "type": "address"
        },
        {
          "indexed": false,
          "internalType": "uint256",
          "name": "amount",
          "type": "uint256"
        },
        {
          "indexed": false,
          "internalType": "bytes32",
          "name": "solanaTxSig",
          "type": "bytes32"
        }
      ],
      "name": "TokensUnlocked",
      "type": "event"
    },
    {
      "inputs": [
        {
          "internalType": "address",
          "name": "relayer",
          "type": "address"
        }
      ],
      "name": "addRelayer",
      "outputs": [],
      "stateMutability": "nonpayable",
      "type": "function"
    },
    {
      "inputs": [
        {
          "internalType": "address",
          "name": "",
          "type": "address"
        }
      ],
      "name": "depositNonce",
      "outputs": [
        {
          "internalType": "uint256",
          "name": "",
          "type": "uint256"
        }
      ],
      "stateMutability": "view",
      "type": "function"
    },
    {
      "inputs": [
        {
          "internalType": "address",
          "name": "token",
          "type": "address"
        },
        {
          "internalType": "uint256",
          "name": "amount",
          "type": "uint256"
        }
      ],
      "name": "emergencyWithdraw",
      "outputs": [],
      "stateMutability": "nonpayable",
      "type": "function"
    },
    {
      "inputs": [],
      "name": "getRelayers",
      "outputs": [
        {
          "internalType": "address[]",
          "name": "",
          "type": "address[]"
        }
      ],
      "stateMutability": "view",
      "type": "function"
    },
    {
      "inputs": [
        {
          "internalType": "bytes32",
          "name": "",
          "type": "bytes32"
        },
        {
          "internalType": "address",
          "name": "",
          "type": "address"
        }
      ],
      "name": "hasSigned",
      "outputs": [
        {
          "internalType": "bool",
          "name": "",
          "type": "bool"
        }
      ],
      "stateMutability": "view",
      "type": "function"
    },
    {
      "inputs": [
        {
          "internalType": "address",
          "name": "",
          "type": "address"
        }
      ],
      "name": "isRelayer",
      "outputs": [
        {
          "internalType": "bool",
          "name": "",
          "type": "bool"
        }
      ],
      "stateMutability": "view",
      "type": "function"
    },
    {
      "inputs": [
        {
          "internalType": "address",
          "name": "token",
          "type": "address"
        },
        {
          "internalType": "uint256",
          "name": "amount",
          "type": "uint256"
        },
        {
          "internalType": "bytes32",
          "name": "recipient",
          "type": "bytes32"
        }
      ],
      "name": "lockTokens",
      "outputs": [],
      "stateMutability": "nonpayable",
      "type": "function"
    },
    {
      "inputs": [],
      "name": "owner",
      "outputs": [
        {
          "internalType": "address",
          "name": "",
          "type": "address"
        }
      ],
      "stateMutability": "view",
      "type": "function"
    },
    {
      "inputs": [
        {
          "internalType": "bytes32",
          "name": "",
          "type": "bytes32"
        }
      ],
      "name": "processedUnlocks",
      "outputs": [
        {
          "internalType": "bool",
          "name": "",
          "type": "bool"
        }
      ],
      "stateMutability": "view",
      "type": "function"
    },
    {
      "inputs": [
        {
          "internalType": "uint256",
          "name": "",
          "type": "uint256"
        }
      ],
      "name": "relayers",
      "outputs": [
        {
          "internalType": "address",
          "name": "",
          "type": "address"
        }
      ],
      "stateMutability": "view",
      "type": "function"
    },
    {
      "inputs": [
        {
          "internalType": "address",
          "name": "relayer",
          "type": "address"
        }
      ],
      "name": "removeRelayer",
      "outputs": [],
      "stateMutability": "nonpayable",
      "type": "function"
    },
    {
      "inputs": [],
      "name": "renounceOwnership",
      "outputs": [],
      "stateMutability": "nonpayable",
      "type": "function"
    },
    {
      "inputs": [
        {
          "internalType": "uint256",
          "name": "_threshold",
          "type": "uint256"
        }
      ],
      "name": "setThreshold",
      "outputs": [],
      "stateMutability": "nonpayable",
      "type": "function"
    },
    {
      "inputs": [
        {
          "internalType": "bytes32",
          "name": "",
          "type": "bytes32"
        }
      ],
      "name": "signatureCount",
      "outputs": [
        {
          "internalType": "uint256",
          "name": "",
          "type": "uint256"
        }
      ],
      "stateMutability": "view",
      "type": "function"
    },
    {
      "inputs": [
        {
          "internalType": "address",
          "name": "token",
          "type": "address"
        },
        {
          "internalType": "address",
          "name": "recipient",
          "type": "address"
        },
        {
          "internalType": "uint256",
          "name": "amount",
          "type": "uint256"
        },
        {
          "internalType": "bytes32",
          "name": "solanaTxSig",
          "type": "bytes32"
        },
        {
          "internalType": "uint256",
          "name": "nonce",
          "type": "uint256"
        }
      ],
      "name": "submitUnlock",
      "outputs": [],
      "stateMutability": "nonpayable",
      "type": "function"
    },
    {
      "inputs": [],
      "name": "threshold",
      "outputs": [
        {
          "internalType": "uint256",
          "name": "",
          "type": "uint256"
        }
      ],
      "stateMutability": "view",
      "type": "function"
    },
    {
      "inputs": [
        {
          "internalType": "address",
          "name": "newOwner",
          "type": "address"
        }
      ],
      "name": "transferOwnership",
      "outputs": [],
      "stateMutability": "nonpayable",
      "type": "function"
    }
  ],
  "bytecode": "0x60806040523480156200001157600080fd5b506040516200168638038062001686833981016040819052620000349162000340565b33806200005c57604051631e4fbdf760e01b8152600060048201526024015b60405180910390fd5b6200006781620002bd565b5060017f9b779b17422d0df92223018b32b4d1fa46e071723d6817e2486d003becc55f00558151620000dc5760405162461bcd60e51b815260206004820152601360248201527f4272696467653a206e6f2072656c617965727300000000000000000000000000604482015260640162000053565b600081118015620000ee575081518111155b6200013c5760405162461bcd60e51b815260206004820152601560248201527f4272696467653a20626164207468726573686f6c640000000000000000000000604482015260640162000053565b60005b8251811015620002b25760008382815181106200016057620001606200041a565b6020026020010151905060006001600160a01b0316816001600160a01b031603620001ce5760405162461bcd60e51b815260206004820152601c60248201527f4272696467653a207a65726f20616464726573732072656c6179657200000000604482015260640162000053565b6001600160a01b03811660009081526002602052604090205460ff1615620002395760405162461bcd60e51b815260206004820152601960248201527f4272696467653a206475706c69636174652072656c6179657200000000000000604482015260640162000053565b6001600160a01b03166000818152600260205260408120805460ff191660019081179091556003805491820181559091527fc2575a0e9e593c00f959f8c92f12db2869c3395a3b0502d05e2516446f71f85b0180546001600160a01b031916909117905580620002a98162000430565b9150506200013f565b506001555062000458565b600080546001600160a01b038381166001600160a01b0319831681178455604051919092169283917f8be0079c531659141344cd1fd0a4f28419497f9722a3daafe3b4186f6b6457e09190a35050565b634e487b7160e01b600052604160045260246000fd5b80516001600160a01b03811681146200033b57600080fd5b919050565b600080604083850312156200035457600080fd5b82516001600160401b03808211156200036c57600080fd5b818501915085601f8301126200038157600080fd5b81516020828211156200039857620003986200030d565b8160051b604051601f19603f83011681018181108682111715620003c057620003c06200030d565b604052928352818301935084810182019289841115620003df57600080fd5b948201945b838610156200040857620003f88662000323565b85529482019493820193620003e4565b97909101519698969750505050505050565b634e487b7160e01b600052603260045260246000fd5b6000600182016200045157634e487b7160e01b600052601160045260246000fd5b5060010190565b61121e80620004686000396000f3fe608060405234801561001057600080fd5b506004361061010b5760003560e01c806387e306f5116100a25780639a48e7f9116100715780639a48e7f914610254578063b3cc026d14610267578063bd427f0b14610287578063dd39f00d146102aa578063f2fde38b146102bd57600080fd5b806387e306f5146101e95780638da5cb5b1461020957806395ccea671461022e578063960bfe041461024157600080fd5b806342cde4e8116100de57806342cde4e814610194578063541d5548146101ab57806360f0a5ac146101ce578063715018a6146101e157600080fd5b806303a802fb14610110578063179ff4b21461012557806329832c0f1461014357806341d5e8b214610181575b600080fd5b61012361011e366004610fca565b6102d0565b005b61012d610600565b60405161013a9190611017565b60405180910390f35b610171610151366004611064565b600660209081526000928352604080842090915290825290205460ff1681565b604051901515815260200161013a565b61012361018f366004611090565b610662565b61019d60015481565b60405190815260200161013a565b6101716101b93660046110c3565b60026020526000908152604090205460ff1681565b6101236101dc3660046110c3565b6108d0565b610123610aff565b61019d6101f73660046110c3565b60046020526000908152604090205481565b6000546001600160a01b03165b6040516001600160a01b03909116815260200161013a565b61012361023c3660046110e5565b610b13565b61012361024f36600461110f565b610b45565b61021661026236600461110f565b610be0565b61019d61027536600461110f565b60076020526000908152604090205481565b61017161029536600461110f565b60056020526000908152604090205460ff1681565b6101236102b83660046110c3565b610c0a565b6101236102cb3660046110c3565b610d5e565b6102d8610d9c565b3360009081526002602052604090205460ff166103345760405162461bcd60e51b8152602060048201526015602482015274213934b233b29d103737ba1030903932b630bcb2b960591b60448201526064015b60405180910390fd5b6001600160a01b0385161580159061035457506001600160a01b03841615155b6103975760405162461bcd60e51b81526020600482015260146024820152734272696467653a207a65726f206164647265737360601b604482015260640161032b565b600083116103dd5760405162461bcd60e51b8152602060048201526013602482015272109c9a5919d94e881e995c9bc8185b5bdd5b9d606a1b604482015260640161032b565b60408051606087811b6bffffffffffffffffffffffff199081166020808501919091529188901b166034830152604882018690526068820185905260888083018590528351808403909101815260a8909201909252805191012060009060008181526005602052604090205490915060ff161561049c5760405162461bcd60e51b815260206004820152601960248201527f4272696467653a20616c72656164792070726f63657373656400000000000000604482015260640161032b565b600081815260066020908152604080832033845290915290205460ff16156104ff5760405162461bcd60e51b8152602060048201526016602482015275109c9a5919d94e88185b1c9958591e481cda59db995960521b604482015260640161032b565b60008181526006602090815260408083203384528252808320805460ff191660019081179091558484526007909252822080549192909161054190849061113e565b9091555050600154600082815260076020526040902054106105e1576000818152600560205260409020805460ff1916600117905561058a6001600160a01b0387168686610db8565b846001600160a01b0316866001600160a01b03167fc24528373542ee9723afbd28e392c80d637cad2d28d9034600064379224c440586866040516105d8929190918252602082015260400190565b60405180910390a35b506105f960016000805160206111c983398151915255565b5050505050565b6060600380548060200260200160405190810160405280929190818152602001828054801561065857602002820191906000526020600020905b81546001600160a01b0316815260019091019060200180831161063a575b5050505050905090565b61066a610d9c565b600082116106b05760405162461bcd60e51b8152602060048201526013602482015272109c9a5919d94e881e995c9bc8185b5bdd5b9d606a1b604482015260640161032b565b6001600160a01b0383166106fb5760405162461bcd60e51b8152602060048201526012602482015271213934b233b29d103d32b937903a37b5b2b760711b604482015260640161032b565b806107415760405162461bcd60e51b8152602060048201526016602482015275109c9a5919d94e881e995c9bc81c9958da5c1a595b9d60521b604482015260640161032b565b6001600160a01b03831660009081526004602052604081208054908261076683611157565b909155506040516370a0823160e01b81523060048201529091506000906001600160a01b038616906370a0823190602401602060405180830381865afa1580156107b4573d6000803e3d6000fd5b505050506040513d601f19601f820116820180604052508101906107d89190611170565b90506107ef6001600160a01b038616333087610ded565b6040516370a0823160e01b815230600482015260009082906001600160a01b038816906370a0823190602401602060405180830381865afa158015610838573d6000803e3d6000fd5b505050506040513d601f19601f8201168201806040525081019061085c9190611170565b6108669190611189565b6040805182815260208101869052919250859133916001600160a01b038a16917f12b5c5f02017644662479b4a60a26395cc98032f55369feb2bc2c7f425ef4e11910160405180910390a45050506108cb60016000805160206111c983398151915255565b505050565b6108d8610e29565b6001600160a01b03811660009081526002602052604090205460ff166109385760405162461bcd60e51b8152602060048201526015602482015274213934b233b29d103737ba1030903932b630bcb2b960591b604482015260640161032b565b60018054600354909161094a91611189565b10156109985760405162461bcd60e51b815260206004820152601d60248201527f4272696467653a20776f756c6420627265616b207468726573686f6c64000000604482015260640161032b565b6001600160a01b0381166000908152600260205260408120805460ff191690555b600354811015610abe57816001600160a01b0316600382815481106109e0576109e061119c565b6000918252602090912001546001600160a01b031603610aac5760038054610a0a90600190611189565b81548110610a1a57610a1a61119c565b600091825260209091200154600380546001600160a01b039092169183908110610a4657610a4661119c565b9060005260206000200160006101000a8154816001600160a01b0302191690836001600160a01b031602179055506003805480610a8557610a856111b2565b600082815260209020810160001990810180546001600160a01b0319169055019055610abe565b80610ab681611157565b9150506109b9565b506040516001600160a01b03821681527f10e1f7ce9fd7d1b90a66d13a2ab3cb8dd7f29f3f8d520b143b063ccfbab6906b906020015b60405180910390a150565b610b07610e29565b610b116000610e56565b565b610b1b610e29565b610b41610b306000546001600160a01b031690565b6001600160a01b0384169083610db8565b5050565b610b4d610e29565b600081118015610b5f57506003548111155b610bab5760405162461bcd60e51b815260206004820152601960248201527f4272696467653a20696e76616c6964207468726573686f6c6400000000000000604482015260640161032b565b60018190556040518181527fadfa8ecb21b6962ebcd0adbd9ab985b7b4c5b5eb3b0dead683171565c7bfe17190602001610af4565b60038181548110610bf057600080fd5b6000918252602090912001546001600160a01b0316905081565b610c12610e29565b6001600160a01b038116610c5f5760405162461bcd60e51b81526020600482015260146024820152734272696467653a207a65726f206164647265737360601b604482015260640161032b565b6001600160a01b03811660009081526002602052604090205460ff1615610cc85760405162461bcd60e51b815260206004820152601760248201527f4272696467653a20616c72656164792072656c61796572000000000000000000604482015260640161032b565b6001600160a01b0381166000818152600260209081526040808320805460ff191660019081179091556003805491820181559093527fc2575a0e9e593c00f959f8c92f12db2869c3395a3b0502d05e2516446f71f85b90920180546001600160a01b0319168417905590519182527f03580ee9f53a62b7cb409a2cb56f9be87747dd15017afc5cef6eef321e4fb2c59101610af4565b610d66610e29565b6001600160a01b038116610d9057604051631e4fbdf760e01b81526000600482015260240161032b565b610d9981610e56565b50565b610da4610ea6565b60026000805160206111c983398151915255565b610dc58383836001610ed6565b6108cb57604051635274afe760e01b81526001600160a01b038416600482015260240161032b565b610dfb848484846001610f3c565b610e2357604051635274afe760e01b81526001600160a01b038516600482015260240161032b565b50505050565b6000546001600160a01b03163314610b115760405163118cdaa760e01b815233600482015260240161032b565b600080546001600160a01b038381166001600160a01b0319831681178455604051919092169283917f8be0079c531659141344cd1fd0a4f28419497f9722a3daafe3b4186f6b6457e09190a35050565b6000805160206111c983398151915254600203610b1157604051633ee5aeb560e01b815260040160405180910390fd5b60405163a9059cbb60e01b60008181526001600160a01b038616600452602485905291602083604481808b5af192506001600051148316610f30578383151615610f23573d6000823e3d81fd5b6000873b113d1516831692505b60405250949350505050565b6040516323b872dd60e01b60008181526001600160a01b038781166004528616602452604485905291602083606481808c5af192506001600051148316610f9c578383151615610f8f573d6000823e3d81fd5b6000883b113d1516831692505b60405250600060605295945050505050565b80356001600160a01b0381168114610fc557600080fd5b919050565b600080600080600060a08688031215610fe257600080fd5b610feb86610fae565b9450610ff960208701610fae565b94979496505050506040830135926060810135926080909101359150565b6020808252825182820181905260009190848201906040850190845b818110156110585783516001600160a01b031683529284019291840191600101611033565b50909695505050505050565b6000806040838503121561107757600080fd5b8235915061108760208401610fae565b90509250929050565b6000806000606084860312156110a557600080fd5b6110ae84610fae565b95602085013595506040909401359392505050565b6000602082840312156110d557600080fd5b6110de82610fae565b9392505050565b600080604083850312156110f857600080fd5b61110183610fae565b946020939093013593505050565b60006020828403121561112157600080fd5b5035919050565b634e487b7160e01b600052601160045260246000fd5b8082018082111561115157611151611128565b92915050565b60006001820161116957611169611128565b5060010190565b60006020828403121561118257600080fd5b5051919050565b8181038181111561115157611151611128565b634e487b7160e01b600052603260045260246000fd5b634e487b7160e01b600052603160045260246000fdfe9b779b17422d0df92223018b32b4d1fa46e071723d6817e2486d003becc55f00a2646970667358221220e66583065d99f7c99120408dcfc3581980a2814f47cbfadc937817b011e9d67064736f6c63430008140033",
  "linkReferences": {},
  "deployedLinkReferences": {}
}